{
  "contractName": "REC",
  "abi": [
    {
      "constant": true,
      "inputs": [],
      "name": "name",
      "outputs": [
        {
          "name": "",
          "type": "string"
        }
      ],
      "payable": false,
      "stateMutability": "view",
      "type": "function"
    },
    {
      "constant": true,
      "inputs": [
        {
          "name": "",
          "type": "uint256"
        }
      ],
      "name": "tokenIndexToOwner",
      "outputs": [
        {
          "name": "",
          "type": "address"
        }
      ],
      "payable": false,
      "stateMutability": "view",
      "type": "function"
    },
    {
      "constant": true,
      "inputs": [],
      "name": "symbol",
      "outputs": [
        {
          "name": "",
          "type": "string"
        }
      ],
      "payable": false,
      "stateMutability": "view",
      "type": "function"
    },
    {
      "constant": true,
      "inputs": [
        {
          "name": "",
          "type": "uint256"
        }
      ],
      "name": "tokenIndexToApproved",
      "outputs": [
        {
          "name": "",
          "type": "address"
        }
      ],
      "payable": false,
      "stateMutability": "view",
      "type": "function"
    },
    {
      "anonymous": false,
      "inputs": [
        {
          "indexed": false,
          "name": "owner",
          "type": "address"
        },
        {
          "indexed": false,
          "name": "tokenId",
          "type": "uint256"
        }
      ],
      "name": "Mint",
      "type": "event"
    },
    {
      "anonymous": false,
      "inputs": [
        {
          "indexed": true,
          "name": "value1",
          "type": "uint256"
        }
      ],
      "name": "testValue",
      "type": "event"
    },
    {
      "anonymous": false,
      "inputs": [
        {
          "indexed": false,
          "name": "from",
          "type": "address"
        },
        {
          "indexed": false,
          "name": "to",
          "type": "address"
        },
        {
          "indexed": false,
          "name": "tokenId",
          "type": "uint256"
        }
      ],
      "name": "Transfer",
      "type": "event"
    },
    {
      "anonymous": false,
      "inputs": [
        {
          "indexed": false,
          "name": "owner",
          "type": "address"
        },
        {
          "indexed": false,
          "name": "approved",
          "type": "address"
        },
        {
          "indexed": false,
          "name": "tokenId",
          "type": "uint256"
        }
      ],
      "name": "Approval",
      "type": "event"
    },
    {
      "constant": true,
      "inputs": [
        {
          "name": "_interfaceID",
          "type": "bytes4"
        }
      ],
      "name": "supportsInterface",
      "outputs": [
        {
          "name": "",
          "type": "bool"
        }
      ],
      "payable": false,
      "stateMutability": "view",
      "type": "function"
    },
    {
      "constant": true,
      "inputs": [],
      "name": "totalSupply",
      "outputs": [
        {
          "name": "",
          "type": "uint256"
        }
      ],
      "payable": false,
      "stateMutability": "view",
      "type": "function"
    },
    {
      "constant": true,
      "inputs": [
        {
          "name": "_owner",
          "type": "address"
        }
      ],
      "name": "balanceOf",
      "outputs": [
        {
          "name": "",
          "type": "uint256"
        }
      ],
      "payable": false,
      "stateMutability": "view",
      "type": "function"
    },
    {
      "constant": true,
      "inputs": [
        {
          "name": "_tokenId",
          "type": "uint256"
        }
      ],
      "name": "ownerOf",
      "outputs": [
        {
          "name": "owner",
          "type": "address"
        }
      ],
      "payable": false,
      "stateMutability": "view",
      "type": "function"
    },
    {
      "constant": false,
      "inputs": [
        {
          "name": "_to",
          "type": "address"
        },
        {
          "name": "_tokenId",
          "type": "uint256"
        }
      ],
      "name": "approve",
      "outputs": [],
      "payable": false,
      "stateMutability": "nonpayable",
      "type": "function"
    },
    {
      "constant": false,
      "inputs": [
        {
          "name": "_to",
          "type": "address"
        },
        {
          "name": "_tokenId",
          "type": "uint256"
        }
      ],
      "name": "transfer",
      "outputs": [],
      "payable": false,
      "stateMutability": "nonpayable",
      "type": "function"
    },
    {
      "constant": false,
      "inputs": [
        {
          "name": "_from",
          "type": "address"
        },
        {
          "name": "_to",
          "type": "address"
        },
        {
          "name": "_tokenId",
          "type": "uint256"
        }
      ],
      "name": "transferFrom",
      "outputs": [],
      "payable": false,
      "stateMutability": "nonpayable",
      "type": "function"
    },
    {
      "constant": true,
      "inputs": [
        {
          "name": "_owner",
          "type": "address"
        }
      ],
      "name": "tokensOfOwner",
      "outputs": [
        {
          "name": "",
          "type": "uint256[]"
        }
      ],
      "payable": false,
      "stateMutability": "view",
      "type": "function"
    },
    {
      "constant": false,
      "inputs": [],
      "name": "mint",
      "outputs": [
        {
          "name": "",
          "type": "uint256"
        }
      ],
      "payable": false,
      "stateMutability": "nonpayable",
      "type": "function"
    },
    {
      "constant": true,
      "inputs": [
        {
          "name": "_tokenId",
          "type": "uint256"
        }
      ],
      "name": "getToken",
      "outputs": [
        {
          "name": "mintedBy",
          "type": "address"
        },
        {
          "name": "mintedAt",
          "type": "uint64"
        }
      ],
      "payable": false,
      "stateMutability": "view",
      "type": "function"
    }
  ],
  "bytecode": "0x6060604052341561000f57600080fd5b61173f8061001e6000396000f3006060604052600436106100d0576000357c0100000000000000000000000000000000000000000000000000000000900463ffffffff16806301ffc9a7146100d557806306fdde031461012f578063095ea7b3146101bd5780631249c58b146101ff57806318160ddd146102285780631d36e06c1461025157806323b872dd146102b45780636352211e1461031557806370a08231146103785780638462151c146103c557806395d89b4114610453578063a8bd9c32146104e1578063a9059cbb14610544578063e4b50cb814610586575b600080fd5b34156100e057600080fd5b61011560048080357bffffffffffffffffffffffffffffffffffffffffffffffffffffffff1916906020019091905050610604565b604051808215151515815260200191505060405180910390f35b341561013a57600080fd5b6101426108de565b6040518080602001828103825283818151815260200191508051906020019080838360005b83811015610182578082015181840152602081019050610167565b50505050905090810190601f1680156101af5780820380516001836020036101000a031916815260200191505b509250505060405180910390f35b34156101c857600080fd5b6101fd600480803573ffffffffffffffffffffffffffffffffffffffff16906020019091908035906020019091905050610917565b005b341561020a57600080fd5b61021261093a565b6040518082815260200191505060405180910390f35b341561023357600080fd5b61023b61094a565b6040518082815260200191505060405180910390f35b341561025c57600080fd5b6102726004808035906020019091905050610956565b604051808273ffffffffffffffffffffffffffffffffffffffff1673ffffffffffffffffffffffffffffffffffffffff16815260200191505060405180910390f35b34156102bf57600080fd5b610313600480803573ffffffffffffffffffffffffffffffffffffffff1690602001909190803573ffffffffffffffffffffffffffffffffffffffff16906020019091908035906020019091905050610989565b005b341561032057600080fd5b6103366004808035906020019091905050610a3a565b604051808273ffffffffffffffffffffffffffffffffffffffff1673ffffffffffffffffffffffffffffffffffffffff16815260200191505060405180910390f35b341561038357600080fd5b6103af600480803573ffffffffffffffffffffffffffffffffffffffff16906020019091905050610ab6565b6040518082815260200191505060405180910390f35b34156103d057600080fd5b6103fc600480803573ffffffffffffffffffffffffffffffffffffffff16906020019091905050610aff565b6040518080602001828103825283818151815260200191508051906020019060200280838360005b8381101561043f578082015181840152602081019050610424565b505050509050019250505060405180910390f35b341561045e57600080fd5b610466610c36565b6040518080602001828103825283818151815260200191508051906020019080838360005b838110156104a657808201518184015260208101905061048b565b50505050905090810190601f1680156104d35780820380516001836020036101000a031916815260200191505b509250505060405180910390f35b34156104ec57600080fd5b6105026004808035906020019091905050610c6f565b604051808273ffffffffffffffffffffffffffffffffffffffff1673ffffffffffffffffffffffffffffffffffffffff16815260200191505060405180910390f35b341561054f57600080fd5b610584600480803573ffffffffffffffffffffffffffffffffffffffff16906020019091908035906020019091905050610ca2565b005b341561059157600080fd5b6105a76004808035906020019091905050610d3d565b604051808373ffffffffffffffffffffffffffffffffffffffff1673ffffffffffffffffffffffffffffffffffffffff1681526020018267ffffffffffffffff1667ffffffffffffffff1681526020019250505060405180910390f35b600060405180807f737570706f727473496e74657266616365286279746573342900000000000000815250601901905060405180910390207bffffffffffffffffffffffffffffffffffffffffffffffffffffffff1916827bffffffffffffffffffffffffffffffffffffffffffffffffffffffff191614806108d7575060405180807f746f6b656e734f664f776e6572286164647265737329000000000000000000008152506016019050604051809103902060405180807f7472616e7366657246726f6d28616464726573732c616464726573732c75696e81526020017f74323536290000000000000000000000000000000000000000000000000000008152506025019050604051809103902060405180807f7472616e7366657228616464726573732c75696e7432353629000000000000008152506019019050604051809103902060405180807f617070726f766528616464726573732c75696e743235362900000000000000008152506018019050604051809103902060405180807f6f776e65724f662875696e7432353629000000000000000000000000000000008152506010019050604051809103902060405180807f62616c616e63654f6628616464726573732900000000000000000000000000008152506012019050604051809103902060405180807f746f74616c537570706c79282900000000000000000000000000000000000000815250600d019050604051809103902060405180807f73796d626f6c28290000000000000000000000000000000000000000000000008152506008019050604051809103902060405180807f6e616d65282900000000000000000000000000000000000000000000000000008152506006019050604051809103902018181818181818187bffffffffffffffffffffffffffffffffffffffffffffffffffffffff1916827bffffffffffffffffffffffffffffffffffffffffffffffffffffffff1916145b9050919050565b6040805190810160405280601a81526020017f52656e657261626c65456e65726779436572746966696361746500000000000081525081565b6109213382610eb1565b151561092c57600080fd5b6109368282610f1d565b5050565b600061094533611078565b905090565b60008080549050905090565b60016020528060005260406000206000915054906101000a900473ffffffffffffffffffffffffffffffffffffffff1681565b600073ffffffffffffffffffffffffffffffffffffffff168273ffffffffffffffffffffffffffffffffffffffff16141515156109c557600080fd5b3073ffffffffffffffffffffffffffffffffffffffff168273ffffffffffffffffffffffffffffffffffffffff1614151515610a0057600080fd5b610a0a3382611239565b1515610a1557600080fd5b610a1f8382610eb1565b1515610a2a57600080fd5b610a358383836112a5565b505050565b60006001600083815260200190815260200160002060009054906101000a900473ffffffffffffffffffffffffffffffffffffffff169050600073ffffffffffffffffffffffffffffffffffffffff168173ffffffffffffffffffffffffffffffffffffffff1614151515610aae57600080fd5b809050919050565b6000600260008373ffffffffffffffffffffffffffffffffffffffff1673ffffffffffffffffffffffffffffffffffffffff168152602001908152602001600020549050919050565b610b07611513565b6000610b11611513565b6000806000610b1f87610ab6565b94506000851415610b51576000604051805910610b395750595b90808252806020026020018201604052509550610c2c565b84604051805910610b5f5750595b90808252806020026020018201604052509350610b7a61094a565b925060009150600190505b8281111515610c28578673ffffffffffffffffffffffffffffffffffffffff166001600083815260200190815260200160002060009054906101000a900473ffffffffffffffffffffffffffffffffffffffff1673ffffffffffffffffffffffffffffffffffffffff161415610c1b57808483815181101515610c0457fe5b906020019060200201818152505081806001019250505b8080600101915050610b85565b8395505b5050505050919050565b6040805190810160405280600381526020017f524543000000000000000000000000000000000000000000000000000000000081525081565b60036020528060005260406000206000915054906101000a900473ffffffffffffffffffffffffffffffffffffffff1681565b600073ffffffffffffffffffffffffffffffffffffffff168273ffffffffffffffffffffffffffffffffffffffff1614151515610cde57600080fd5b3073ffffffffffffffffffffffffffffffffffffffff168273ffffffffffffffffffffffffffffffffffffffff1614151515610d1957600080fd5b610d233382610eb1565b1515610d2e57600080fd5b610d393383836112a5565b5050565b600080610d48611527565b600084815481101515610d5757fe5b9060005260206000209060020201606060405190810160405290816000820160009054906101000a900473ffffffffffffffffffffffffffffffffffffffff1673ffffffffffffffffffffffffffffffffffffffff1673ffffffffffffffffffffffffffffffffffffffff1681526020016000820160149054906101000a900467ffffffffffffffff1667ffffffffffffffff1667ffffffffffffffff168152602001600182018054600181600116156101000203166002900480601f016020809104026020016040519081016040528092919081815260200182805460018160011615610100020316600290048015610e925780601f10610e6757610100808354040283529160200191610e92565b820191906000526020600020905b815481529060010190602001808311610e7557829003601f168201915b5050505050815250509050806000015192508060200151915050915091565b60008273ffffffffffffffffffffffffffffffffffffffff166001600084815260200190815260200160002060009054906101000a900473ffffffffffffffffffffffffffffffffffffffff1673ffffffffffffffffffffffffffffffffffffffff1614905092915050565b816003600083815260200190815260200160002060006101000a81548173ffffffffffffffffffffffffffffffffffffffff021916908373ffffffffffffffffffffffffffffffffffffffff1602179055507f8c5be1e5ebec7d5bd14f71427d1e84f3dd0314c0f7b2291e5b200ac8c7c3b9256001600083815260200190815260200160002060009054906101000a900473ffffffffffffffffffffffffffffffffffffffff166003600084815260200190815260200160002060009054906101000a900473ffffffffffffffffffffffffffffffffffffffff1683604051808473ffffffffffffffffffffffffffffffffffffffff1673ffffffffffffffffffffffffffffffffffffffff1681526020018373ffffffffffffffffffffffffffffffffffffffff1673ffffffffffffffffffffffffffffffffffffffff168152602001828152602001935050505060405180910390a15050565b6000611082611527565b6060604051908101604052808473ffffffffffffffffffffffffffffffffffffffff1681526020014267ffffffffffffffff1681526020016040805190810160405280600581526020017f42616d626f000000000000000000000000000000000000000000000000000000815250815250905060016000805480600101828161110b919061156f565b9160005260206000209060020201600084909190915060008201518160000160006101000a81548173ffffffffffffffffffffffffffffffffffffffff021916908373ffffffffffffffffffffffffffffffffffffffff16021790555060208201518160000160146101000a81548167ffffffffffffffff021916908367ffffffffffffffff16021790555060408201518160010190805190602001906111b39291906115a1565b5050500391507f0f6798a560793a54c3bcfe86a93cde1e73087d944c0ea20544137d41213968858383604051808373ffffffffffffffffffffffffffffffffffffffff1673ffffffffffffffffffffffffffffffffffffffff1681526020018281526020019250505060405180910390a1611230600084846112a5565b81915050919050565b60008273ffffffffffffffffffffffffffffffffffffffff166003600084815260200190815260200160002060009054906101000a900473ffffffffffffffffffffffffffffffffffffffff1673ffffffffffffffffffffffffffffffffffffffff1614905092915050565b600260008373ffffffffffffffffffffffffffffffffffffffff1673ffffffffffffffffffffffffffffffffffffffff16815260200190815260200160002060008154809291906001019190505550600260008373ffffffffffffffffffffffffffffffffffffffff1673ffffffffffffffffffffffffffffffffffffffff168152602001908152602001600020547f6ffdfe397beb2c6654f965b762a52096f61946508bce98e4fbfd7077fd6aca1b60405160405180910390a2816001600083815260200190815260200160002060006101000a81548173ffffffffffffffffffffffffffffffffffffffff021916908373ffffffffffffffffffffffffffffffffffffffff160217905550600073ffffffffffffffffffffffffffffffffffffffff168373ffffffffffffffffffffffffffffffffffffffff1614151561146f57600260008473ffffffffffffffffffffffffffffffffffffffff1673ffffffffffffffffffffffffffffffffffffffff16815260200190815260200160002060008154809291906001900391905055506003600082815260200190815260200160002060006101000a81549073ffffffffffffffffffffffffffffffffffffffff02191690555b7fddf252ad1be2c89b69c2b068fc378daa952ba7f163c4a11628f55a4df523b3ef838383604051808473ffffffffffffffffffffffffffffffffffffffff1673ffffffffffffffffffffffffffffffffffffffff1681526020018373ffffffffffffffffffffffffffffffffffffffff1673ffffffffffffffffffffffffffffffffffffffff168152602001828152602001935050505060405180910390a1505050565b602060405190810160405280600081525090565b606060405190810160405280600073ffffffffffffffffffffffffffffffffffffffff168152602001600067ffffffffffffffff168152602001611569611621565b81525090565b81548183558181151161159c5760020281600202836000526020600020918201910161159b9190611635565b5b505050565b828054600181600116156101000203166002900490600052602060002090601f016020900481019282601f106115e257805160ff1916838001178555611610565b82800160010185558215611610579182015b8281111561160f5782518255916020019190600101906115f4565b5b50905061161d91906116a6565b5090565b602060405190810160405280600081525090565b6116a391905b8082111561169f57600080820160006101000a81549073ffffffffffffffffffffffffffffffffffffffff02191690556000820160146101000a81549067ffffffffffffffff021916905560018201600061169691906116cb565b5060020161163b565b5090565b90565b6116c891905b808211156116c45760008160009055506001016116ac565b5090565b90565b50805460018160011615610100020316600290046000825580601f106116f15750611710565b601f01602090049060005260206000209081019061170f91906116a6565b5b505600a165627a7a72305820239194b78e8fbc7a378457c9af774c91a5f1bb0e24df9787d28bc7ec69a3cf2c0029",
  "source": "pragma solidity ^0.4.18;\n\nimport \"./ERC721.sol\";\n\ncontract REC is ERC721 {\n\n\t/*** CONSTANTS ***/\n\n\tstring public constant name = \"RenerableEnergyCertificate\";\n\tstring public constant symbol = \"REC\";\n\n\tbytes4 constant InterfaceID_ERC165 =\n\t\tbytes4(keccak256('supportsInterface(bytes4)'));\n\n\tbytes4 constant InterfaceID_ERC721 =\n\t\tbytes4(keccak256('name()')) ^\n\tbytes4(keccak256('symbol()')) ^\n\tbytes4(keccak256('totalSupply()')) ^\n\tbytes4(keccak256('balanceOf(address)')) ^\n\tbytes4(keccak256('ownerOf(uint256)')) ^\n\tbytes4(keccak256('approve(address,uint256)')) ^\n\tbytes4(keccak256('transfer(address,uint256)')) ^\n\tbytes4(keccak256('transferFrom(address,address,uint256)')) ^\n\tbytes4(keccak256('tokensOfOwner(address)'));\n\n\n\t/*** DATA TYPES ***/\n\n\tstruct Token {\n\t\taddress mintedBy;\n\t\tuint64 mintedAt;\n\t\tstring name;\n\t}\n\n\n\t/*** STORAGE ***/\n\n\tToken[] tokens;\n\n\tmapping (uint256 => address) public tokenIndexToOwner;\n\tmapping (address => uint256) ownershipTokenCount;\n\tmapping (uint256 => address) public tokenIndexToApproved;\n\n\n\t/*** EVENTS ***/\n\n\tevent Mint(address owner, uint256 tokenId);\n\n\n\tevent testValue(uint256 indexed value1);\n\t/*** INTERNAL FUNCTIONS ***/\n\n\tfunction _owns(address _claimant, uint256 _tokenId) internal view returns (bool) {\n\t\treturn tokenIndexToOwner[_tokenId] == _claimant;\n\t}\n\n\tfunction _approvedFor(address _claimant, uint256 _tokenId) internal view returns (bool) {\n\t\treturn tokenIndexToApproved[_tokenId] == _claimant;\n\t}\n\n\tfunction _approve(address _to, uint256 _tokenId) internal {\n\t\ttokenIndexToApproved[_tokenId] = _to;\n\n\t\tApproval(tokenIndexToOwner[_tokenId], tokenIndexToApproved[_tokenId], _tokenId);\n\t}\n\n\tfunction _transfer(address _from, address _to, uint256 _tokenId) internal {\n\t\townershipTokenCount[_to]++;\n\t\ttestValue(ownershipTokenCount[_to]);\n\t\ttokenIndexToOwner[_tokenId] = _to;\n\n\t\tif (_from != address(0)) {\n\t\t\townershipTokenCount[_from]--;\n\t\t\tdelete tokenIndexToApproved[_tokenId];\n\t\t}\n\n\t\tTransfer(_from, _to, _tokenId);\n\t}\n\n\tfunction _mint(address _owner) internal returns (uint256 tokenId) {\n\t\tToken memory token = Token({\n\t\t\tmintedBy: _owner,\n\t\t\tmintedAt: uint64(now),\n\t\t\tname: \"Bambo\"\n\t\t});\n\t\ttokenId = tokens.push(token) - 1;\n\n\t\tMint(_owner, tokenId);\n\n\t\t_transfer(0, _owner, tokenId);\n\t\treturn tokenId;\n\t}\n\n\n\t/*** ERC721 IMPLEMENTATION ***/\n\n\tfunction supportsInterface(bytes4 _interfaceID) external view returns (bool) {\n\t\treturn ((_interfaceID == InterfaceID_ERC165) || (_interfaceID == InterfaceID_ERC721));\n\t}\n\n\tfunction totalSupply() public view returns (uint256) {\n\t\treturn tokens.length;\n\t}\n\n\tfunction balanceOf(address _owner) public view returns (uint256) {\n\t\treturn ownershipTokenCount[_owner];\n\t}\n\n\tfunction ownerOf(uint256 _tokenId) external view returns (address owner) {\n\t\towner = tokenIndexToOwner[_tokenId];\n\n\t\trequire(owner != address(0));\n\t\treturn owner;\n\t}\n\n\tfunction approve(address _to, uint256 _tokenId) external {\n\t\trequire(_owns(msg.sender, _tokenId));\n\n\t\t_approve(_to, _tokenId);\n}\n\n\tfunction transfer(address _to, uint256 _tokenId) external {\n\t\trequire(_to != address(0));\n\t\trequire(_to != address(this));\n\t\trequire(_owns(msg.sender, _tokenId));\n\n\t\t_transfer(msg.sender, _to, _tokenId);\n\t}\n\n\tfunction transferFrom(address _from, address _to, uint256 _tokenId) external {\n\t\trequire(_to != address(0));\n\t\trequire(_to != address(this));\n\t\trequire(_approvedFor(msg.sender, _tokenId));\n\t\trequire(_owns(_from, _tokenId));\n\n\t\t_transfer(_from, _to, _tokenId);\n\t}\n\n\tfunction tokensOfOwner(address _owner) external view returns (uint256[]) {\n\t\tuint256 balance = balanceOf(_owner);\n\n\t\tif (balance == 0) {\n\t\t\treturn new uint256[](0);\n\t\t} else {\n\t\t\tuint256[] memory result = new uint256[](balance);\n\t\t\tuint256 maxTokenId = totalSupply();\n\t\t\tuint256 idx = 0;\n\n\t\t\tuint256 tokenId;\n\t\t\tfor (tokenId = 1; tokenId <= maxTokenId; tokenId++) {\n\t\t\t\tif (tokenIndexToOwner[tokenId] == _owner) {\n\t\t\t\t\tresult[idx] = tokenId;\n\t\t\t\t\tidx++;\n\t\t\t\t}\n\t\t\t}\n\t\t}\n\n\t\treturn result;\n\t}\n\n\n\t/*** OTHER EXTERNAL FUNCTIONS ***/\n\n\tfunction mint() external returns (uint256) {\n\t\treturn _mint(msg.sender);\n\t}\n\n\tfunction getToken(uint256 _tokenId) external view returns (address mintedBy, uint64 mintedAt) {\n\t\tToken memory token = tokens[_tokenId];\n\n\t\tmintedBy = token.mintedBy;\n\t\tmintedAt = token.mintedAt;\n\t}\n}\n",
  "sourcePath": "/Users/kcheung/Solidity/truffle/webpack_box/contracts/REC.sol",
  "compiler": {
    "name": "solc",
    "version": "0.4.21+commit.dfe3193c.Emscripten.clang"
  },
  "schemaVersion": "2.0.0",
  "updatedAt": "2018-04-20T04:17:37.957Z"
}